:100000000C9466000C9483000C9483000C94830081
:100010000C9483000C9483000C9483000C94830054
:100020000C9483000C9483000C9483000C94830044
:100030000C9483000C9483000C9483000C94830034
:100040000C9446020C9483000C9483000C9483005F
:100050000C9483000C9483000C9483000C94830014
:100060000C9483000C94830000000009000302003C
:10007000000405080000000000000000000000016E
:10008000020408102040800102040810200102042C
:100090000810204080400404040404040404020204
:1000A000020202020303030303030202030000002F
:1000B0000023002600290000000000250028002B56
:1000C0000000000000240027002A000011241FBEA9
:1000D000CFEFD8E0DEBFCDBF11E0A0E0B1E0E0ECB3
:1000E000F8E002C005900D92A230B107D9F721E0E7
:1000F000A2E0B1E001C01D92AA31B207E1F70E946F
:100100004E040C945E040C94000061E081E00E94B7
:10011000BA0361E089E00E94BA0361E08AE00E94CC
:10012000BA0361E08DE00E94BA0361E080E00E94C2
:10013000BA0361E08BE00E94BA0361E08CE00E94A8
:10014000BA0360E082E00E94BA0360E083E00E94AC
:10015000BA0360E084E00E94BA0360E085E00E9498
:10016000BA0360E086E00E94BA0360E087E00E9484
:10017000BA0360E088E00E94BA0361E081E00E9477
:10018000F60362E370E080E090E00E94B50260E078
:1001900081E00C94F60388E00E94240421E0892B7E
:1001A00009F420E020930A0182E00E94240421E067
:1001B000892B09F420E02093060183E00E942404A7
:1001C00021E0892B09F420E02093070184E00E94BC
:1001D000240421E0892B09F420E02093050185E027
:1001E0000E94240421E0892B09F420E020930401DB
:1001F00086E00E94240421E0892B09F420E020936A
:10020000090187E00E94240421E0892B09F420E001
:1002100020930801089561E080E00E94F60360E009
:100220008CE00E94F60361E08DE00E94F60360E03E
:100230008BE00C94F60361E080E00E94F60360E03E
:100240008CE00E94F60360E08DE00E94F60361E01E
:100250008BE00C94F60360E080E00E94F60361E01E
:100260008CE00E94F60361E08DE00E94F60360E0FE
:100270008BE00C94F60360E080E00E94F60360E0FF
:100280008CE00E94F60360E08DE00E94F60360E0DF
:100290008BE00C94F603CF930E94CB006EE670E0E7
:1002A00089E00E9434036EE670E08AE00E94340325
:1002B0008091040181110CC00E940B0180910A0100
:1002C000811106C080910701811102C00E943B018B
:1002D000C1E080910401882309F489C00E94CB0009
:1002E0008091080181110CC060E570E089E00E94F6
:1002F000340360E570E08AE00E9434030E941B0131
:100300008091090181110CC064E670E089E00E94CF
:10031000340364E670E08AE00E9434030E941B010B
:1003200080910A01811102C0C093030180910301F1
:100330008823C9F062E870E089E00E94340362E833
:1003400070E08AE00E9434030E941B018091070143
:10035000882361F31092030161E070E080E090E097
:100360000E94B502E3CF8091050181110CC060E5C8
:1003700070E089E00E94340360E570E08AE00E944A
:1003800034030E942B018091060181110CC064E6A8
:1003900070E089E00E94340364E670E08AE00E9425
:1003A00034030E942B0180910701811102C0C09388
:1003B000020180910201882309F48BCF62E870E08A
:1003C00089E00E94340362E870E08AE00E9434030E
:1003D0000E942B0180910A01882359F31092020197
:1003E00061E070E080E090E00E94B502E2CFCF9142
:1003F0000895CF9380E10E9416039093100180939B
:100400000F01C1E080910F0190911001893C91058D
:1004100064F00E943B01C0930E0180E10E9416032C
:100420009093100180930F01EDCF80910E018823EE
:1004300039F180910C0190910D01853A9105A4F458
:1004400061E081E00E94F60361E070E080E090E00E
:100450000E94B50280910C0190910D01019690933C
:100460000D0180930C01E5CF60E081E00E94F6036E
:1004700010920D0110920C0110920E0110920B01BE
:10048000CF9108950E94F9010C944B011F920F9295
:100490000FB60F9211242F933F938F939F93AF9397
:1004A000BF938091160190911701A0911801B0910E
:1004B00019013091150123E0230F2D3768F126E84B
:1004C000230F0296A11DB11D2093150180931601E3
:1004D00090931701A0931801B09319018091110115
:1004E00090911201A0911301B09114010196A11DE8
:1004F000B11D8093110190931201A0931301B09349
:100500001401BF91AF919F918F913F912F910F90C7
:100510000FBE0F901F9018950196A11DB11DD4CF4D
:100520003FB7F8948091110190911201A0911301AD
:10053000B091140126B5A89B05C02F3F19F0019674
:10054000A11DB11D3FBFBA2FA92F982F8827BC012D
:10055000CD01620F711D811D911D42E0660F771F55
:10056000881F991F4A95D1F708958F929F92AF9255
:10057000BF92CF92DF92EF92FF926B017C010E94BB
:1005800090024B015C01C114D104E104F104E9F0D3
:100590000E945D040E949002681979098A099B09EA
:1005A000683E73408105910570F321E0C21AD108BD
:1005B000E108F10888EE880E83E0981EA11CB11CAA
:1005C000C114D104E104F10429F7FF90EF90DF900A
:1005D000CF90BF90AF909F908F900895789484B5FE
:1005E000836084BD85B5836085BDEEE6F0E08081E3
:1005F00081608083E1E8F0E082E080838081816037
:100600008083E0E8F0E0808181608083E1EBF0E0CE
:10061000808184608083E0EBF0E080818160808372
:1006200087E880937A001092C1000895883020F006
:100630008D3008F48DE08E502091000190E4299FC8
:10064000900111248770822B80937C0080917A0026
:10065000806480937A0080917A0086FDFCCF80913F
:1006600078009091790008951F93CF93DF93182F0E
:10067000EB0161E00E94BA03209739F460E0812F1A
:10068000DF91CF911F910C94F603CF3FD10511F468
:1006900061E0F5CFE12FF0E0E859FF4FE491E4305D
:1006A00031F140F4E230B1F0E330E1F0C038D1058F
:1006B0007CF7E4CFE83029F1E93059F1E530B1F7C2
:1006C00080918000806280938000D0938B00C093E3
:1006D0008A0004C084B5806884BDC7BDDF91CF9116
:1006E0001F91089584B5806284BDC8BDF7CF809105
:1006F0008000806880938000D0938900C093880038
:10070000EDCF8091B00080688093B000C093B300BB
:10071000E5CF8091B00080628093B000C093B400B8
:10072000DDCF843081F028F48230E9F08330F9F0B5
:100730000895883071F0893091F08530B9F4809156
:1007400080008F7D03C0809180008F778093800030
:1007500008958091B0008F778093B00008958091C4
:10076000B0008F7DF9CF84B58F7784BD089584B5AF
:100770008F7DFBCFCF93DF9390E0FC01E158FF4FDB
:1007800024918A569F4FFC0184918823C9F090E000
:10079000880F991FFC01EF53FF4FA591B491FC0105
:1007A000E954FF4FC591D49161110DC09FB7F894E2
:1007B0008C91209582238C938881282328839FBF46
:1007C000DF91CF910895623051F49FB7F8943C9136
:1007D000822F809583238C93E8812E2BEFCF8FB7C8
:1007E000F894EC912E2B2C938FBFEACF1F93CF93CD
:1007F000DF93282F30E0F901E859FF4F8491F90188
:10080000E158FF4FD491F901EA56FF4FC491CC2330
:10081000A9F0162F81110E949103EC2FF0E0EE0F4A
:10082000FF1FE954FF4FA591B4918FB7F894EC9155
:10083000111108C0D095DE23DC938FBFDF91CF91DB
:100840001F910895DE2BF8CFCF93DF93282F30E050
:10085000F901E859FF4F8491F901E158FF4FD49114
:10086000F901EA56FF4FC491CC23A1F081110E94F7
:100870009103EC2FF0E0EE0FFF1FE355FF4FA59122
:10088000B491EC91ED2381E090E009F480E0DF91F8
:10089000CF91089580E090E0FACF08950E94EE0293
:1008A0000E944D040E948500C0E0D0E00E944202F8
:1008B0002097E1F30E940000F9CF0895F894FFCF4C
:0208C000010035
:00000001FF
